:020000040800F2
:1000000060060020B1010008B9010008BB0100082A
:10001000BD010008BF010008C10100080000000088
:10002000000000000000000000000000C301000804
:10003000C501000800000000C7010008C901000850
:10004000CB010008CB010008CB010008CB01000860
:10005000CB010008CB010008CB010008CB01000850
:10006000CB010008CB010008CB010008CB01000840
:10007000CB010008CB010008CB010008CB01000830
:10008000CB010008CB010008CB010008CB01000820
:10009000CB010008CB010008CB010008CB01000810
:1000A000CB010008CB010008CB010008CB01000800
:1000B000CB010008CB010008CB010008CB010008F0
:1000C000CB010008CB010008CB010008CB010008E0
:1000D000CB010008CB010008CB010008CB010008D0
:1000E000CB010008CB010008CB010008CB010008C0
:1000F000CB010008CB010008CB010008CB010008B0
:10010000CB010008CB010008CB010008CB0100089F
:10011000CB010008CB010008CB010008CB0100088F
:10012000CB010008CB010008CB010008CB0100087F
:1001300000F002F800F02CF80AA090E8000C8244CD
:100140008344AAF10107DA4501D100F021F8AFF2AA
:10015000090EBAE80F0013F0010F18BFFB1A43F0A5
:10016000010318474C0300005C0300000023002437
:1001700000250026103A28BF78C1FBD8520728BFB7
:1001800030C148BF0B6070471FB51FBD10B510BD13
:1001900000F031F81146FFF7F7FF00F011F900F019
:1001A0004FF803B4FFF7F2FF03BC00F053F8000070
:1001B0000948804709480047FEE7FEE7FEE7FEE7FB
:1001C000FEE7FEE7FEE7FEE7FEE7FEE70448054937
:1001D000054A064B70470000610300083101000822
:1001E0006000002060060020600200206002002005
:1001F000704770477047754600F028F8AE46050016
:100200006946534620F00700854618B020B5FFF731
:10021000DDFFBDE820404FF000064FF000074FF033
:1002200000084FF0000B21F00701AC46ACE8C00914
:10023000ACE8C009ACE8C009ACE8C0098D4670471D
:100240000446AFF300802046FFF7ABFF004870473D
:100250000000002001491820ABBEFEE72600020086
:1002600070470000002000E0401C02498842FBD398
:1002700070470000404B4C0010B500F001F810BD75
:100280000CB50020019000903348006840F48030A5
:100290003149086000BF3048006800F40030009029
:1002A0000198401C0190009818B90198B0F5A06F12
:1002B000F1D12948006800F4003010B1012000900D
:1002C00001E0002000900098012843D123480068F5
:1002D00040F01000214908600846006820F0030043
:1002E00008600846006840F0020008601A4840684C
:1002F000194948600846406848600846406840F42C
:10030000806048600846406820F47C1048600846D9
:10031000406840F4E81048600846006840F080708B
:10032000086000BF0C48006800F000700028F9D099
:100330000948406820F003000749486008464068C3
:1003400040F00200486000BF0348406800F00C0025
:100350000828F9D10CBD0000001002400020024026
:1003600010B51348006840F00100114908600846C4
:100370004068104908400E494860084600680E4928
:1003800008400B4908600846006820F48020086097
:100390000846406820F4FE0048604FF41F00886063
:1003A000FFF76AFF4FF000600449086010BD0000CD
:1003B000001002400000FFF8FFFFF6FE08ED00E02D
:1003C0003748806940F01C0035498861354800682D
:1003D00020F47000334908600846006840F40010BB
:1003E000086030480C30006820F020002D490C31A6
:1003F00008602D48006820F0F0002B49086008468E
:10040000006840F02000086027480830006820F4A9
:1004100000702549083108602448406820F47000C5
:10042000224948600846406840F400104860084689
:10043000C06820F40050C86031E01A480C300068F1
:1004400020F0200017490C310860FFF70BFF15481A
:100450000C30006840F0200012490C31086012484E
:100460000830006820F400700F4908310860FFF779
:10047000F9FE0D480830006840F400700A49083160
:1004800008600A48C06820F400500849C860FFF7B7
:10049000E9FE0648C06840F400500449C860CCE753
:1004A0000010024000080140040C0140001001400F
:1004B000C004000800000020600600006C01000875
:0400000508000131BD
:00000001FF
